{
  "_format": "hh-sol-artifact-1",
  "contractName": "GbeseToken",
  "sourceName": "contracts/GbeseToken.sol",
  "abi": [
    {
      "inputs": [
        {
          "internalType": "address",
          "name": "_kycVerifier",
          "type": "address"
        }
      ],
      "stateMutability": "nonpayable",
      "type": "constructor"
    },
    {
      "inputs": [
        {
          "internalType": "address",
          "name": "spender",
          "type": "address"
        },
        {
          "internalType": "uint256",
          "name": "allowance",
          "type": "uint256"
        },
        {
          "internalType": "uint256",
          "name": "needed",
          "type": "uint256"
        }
      ],
      "name": "ERC20InsufficientAllowance",
      "type": "error"
    },
    {
      "inputs": [
        {
          "internalType": "address",
          "name": "sender",
          "type": "address"
        },
        {
          "internalType": "uint256",
          "name": "balance",
          "type": "uint256"
        },
        {
          "internalType": "uint256",
          "name": "needed",
          "type": "uint256"
        }
      ],
      "name": "ERC20InsufficientBalance",
      "type": "error"
    },
    {
      "inputs": [
        {
          "internalType": "address",
          "name": "approver",
          "type": "address"
        }
      ],
      "name": "ERC20InvalidApprover",
      "type": "error"
    },
    {
      "inputs": [
        {
          "internalType": "address",
          "name": "receiver",
          "type": "address"
        }
      ],
      "name": "ERC20InvalidReceiver",
      "type": "error"
    },
    {
      "inputs": [
        {
          "internalType": "address",
          "name": "sender",
          "type": "address"
        }
      ],
      "name": "ERC20InvalidSender",
      "type": "error"
    },
    {
      "inputs": [
        {
          "internalType": "address",
          "name": "spender",
          "type": "address"
        }
      ],
      "name": "ERC20InvalidSpender",
      "type": "error"
    },
    {
      "inputs": [
        {
          "internalType": "address",
          "name": "owner",
          "type": "address"
        }
      ],
      "name": "OwnableInvalidOwner",
      "type": "error"
    },
    {
      "inputs": [
        {
          "internalType": "address",
          "name": "account",
          "type": "address"
        }
      ],
      "name": "OwnableUnauthorizedAccount",
      "type": "error"
    },
    {
      "anonymous": false,
      "inputs": [
        {
          "indexed": true,
          "internalType": "address",
          "name": "owner",
          "type": "address"
        },
        {
          "indexed": true,
          "internalType": "address",
          "name": "spender",
          "type": "address"
        },
        {
          "indexed": false,
          "internalType": "uint256",
          "name": "value",
          "type": "uint256"
        }
      ],
      "name": "Approval",
      "type": "event"
    },
    {
      "anonymous": false,
      "inputs": [
        {
          "indexed": true,
          "internalType": "address",
          "name": "previousOwner",
          "type": "address"
        },
        {
          "indexed": true,
          "internalType": "address",
          "name": "newOwner",
          "type": "address"
        }
      ],
      "name": "OwnershipTransferred",
      "type": "event"
    },
    {
      "anonymous": false,
      "inputs": [
        {
          "indexed": true,
          "internalType": "address",
          "name": "to",
          "type": "address"
        },
        {
          "indexed": false,
          "internalType": "uint256",
          "name": "amount",
          "type": "uint256"
        }
      ],
      "name": "TokensMinted",
      "type": "event"
    },
    {
      "anonymous": false,
      "inputs": [
        {
          "indexed": true,
          "internalType": "address",
          "name": "from",
          "type": "address"
        },
        {
          "indexed": true,
          "internalType": "address",
          "name": "to",
          "type": "address"
        },
        {
          "indexed": false,
          "internalType": "uint256",
          "name": "value",
          "type": "uint256"
        }
      ],
      "name": "Transfer",
      "type": "event"
    },
    {
      "anonymous": false,
      "inputs": [
        {
          "indexed": true,
          "internalType": "uint256",
          "name": "index",
          "type": "uint256"
        },
        {
          "indexed": true,
          "internalType": "address",
          "name": "from",
          "type": "address"
        },
        {
          "indexed": true,
          "internalType": "address",
          "name": "to",
          "type": "address"
        },
        {
          "indexed": false,
          "internalType": "uint256",
          "name": "amount",
          "type": "uint256"
        },
        {
          "indexed": false,
          "internalType": "uint256",
          "name": "blockNumber",
          "type": "uint256"
        }
      ],
      "name": "TransferLogged",
      "type": "event"
    },
    {
      "inputs": [],
      "name": "INITIAL_SUPPLY",
      "outputs": [
        {
          "internalType": "uint256",
          "name": "",
          "type": "uint256"
        }
      ],
      "stateMutability": "view",
      "type": "function"
    },
    {
      "inputs": [
        {
          "internalType": "address",
          "name": "owner",
          "type": "address"
        },
        {
          "internalType": "address",
          "name": "spender",
          "type": "address"
        }
      ],
      "name": "allowance",
      "outputs": [
        {
          "internalType": "uint256",
          "name": "",
          "type": "uint256"
        }
      ],
      "stateMutability": "view",
      "type": "function"
    },
    {
      "inputs": [
        {
          "internalType": "address",
          "name": "spender",
          "type": "address"
        },
        {
          "internalType": "uint256",
          "name": "value",
          "type": "uint256"
        }
      ],
      "name": "approve",
      "outputs": [
        {
          "internalType": "bool",
          "name": "",
          "type": "bool"
        }
      ],
      "stateMutability": "nonpayable",
      "type": "function"
    },
    {
      "inputs": [
        {
          "internalType": "address",
          "name": "account",
          "type": "address"
        }
      ],
      "name": "balanceOf",
      "outputs": [
        {
          "internalType": "uint256",
          "name": "",
          "type": "uint256"
        }
      ],
      "stateMutability": "view",
      "type": "function"
    },
    {
      "inputs": [],
      "name": "decimals",
      "outputs": [
        {
          "internalType": "uint8",
          "name": "",
          "type": "uint8"
        }
      ],
      "stateMutability": "view",
      "type": "function"
    },
    {
      "inputs": [],
      "name": "kycVerifier",
      "outputs": [
        {
          "internalType": "contract IKYCVerifier",
          "name": "",
          "type": "address"
        }
      ],
      "stateMutability": "view",
      "type": "function"
    },
    {
      "inputs": [
        {
          "internalType": "address",
          "name": "to",
          "type": "address"
        },
        {
          "internalType": "uint256",
          "name": "amount",
          "type": "uint256"
        }
      ],
      "name": "mint",
      "outputs": [],
      "stateMutability": "nonpayable",
      "type": "function"
    },
    {
      "inputs": [],
      "name": "name",
      "outputs": [
        {
          "internalType": "string",
          "name": "",
          "type": "string"
        }
      ],
      "stateMutability": "view",
      "type": "function"
    },
    {
      "inputs": [],
      "name": "owner",
      "outputs": [
        {
          "internalType": "address",
          "name": "",
          "type": "address"
        }
      ],
      "stateMutability": "view",
      "type": "function"
    },
    {
      "inputs": [],
      "name": "renounceOwnership",
      "outputs": [],
      "stateMutability": "nonpayable",
      "type": "function"
    },
    {
      "inputs": [
        {
          "internalType": "address",
          "name": "_newVerifier",
          "type": "address"
        }
      ],
      "name": "setKYCVerifier",
      "outputs": [],
      "stateMutability": "nonpayable",
      "type": "function"
    },
    {
      "inputs": [],
      "name": "symbol",
      "outputs": [
        {
          "internalType": "string",
          "name": "",
          "type": "string"
        }
      ],
      "stateMutability": "view",
      "type": "function"
    },
    {
      "inputs": [],
      "name": "totalSupply",
      "outputs": [
        {
          "internalType": "uint256",
          "name": "",
          "type": "uint256"
        }
      ],
      "stateMutability": "view",
      "type": "function"
    },
    {
      "inputs": [
        {
          "internalType": "address",
          "name": "to",
          "type": "address"
        },
        {
          "internalType": "uint256",
          "name": "value",
          "type": "uint256"
        }
      ],
      "name": "transfer",
      "outputs": [
        {
          "internalType": "bool",
          "name": "",
          "type": "bool"
        }
      ],
      "stateMutability": "nonpayable",
      "type": "function"
    },
    {
      "inputs": [
        {
          "internalType": "address",
          "name": "from",
          "type": "address"
        },
        {
          "internalType": "address",
          "name": "to",
          "type": "address"
        },
        {
          "internalType": "uint256",
          "name": "value",
          "type": "uint256"
        }
      ],
      "name": "transferFrom",
      "outputs": [
        {
          "internalType": "bool",
          "name": "",
          "type": "bool"
        }
      ],
      "stateMutability": "nonpayable",
      "type": "function"
    },
    {
      "inputs": [],
      "name": "transferIndex",
      "outputs": [
        {
          "internalType": "uint256",
          "name": "",
          "type": "uint256"
        }
      ],
      "stateMutability": "view",
      "type": "function"
    },
    {
      "inputs": [
        {
          "internalType": "address",
          "name": "newOwner",
          "type": "address"
        }
      ],
      "name": "transferOwnership",
      "outputs": [],
      "stateMutability": "nonpayable",
      "type": "function"
    }
  ],
  "bytecode": "0x608060405234801561001057600080fd5b506040516127a53803806127a583398181016040528101906100329190610838565b336040518060400160405280600581526020017f47626573650000000000000000000000000000000000000000000000000000008152506040518060400160405280600381526020017f474254000000000000000000000000000000000000000000000000000000000081525081600390816100ae9190610ab5565b5080600490816100be9190610ab5565b505050600073ffffffffffffffffffffffffffffffffffffffff168173ffffffffffffffffffffffffffffffffffffffff16036101335760006040517f1e4fbdf700000000000000000000000000000000000000000000000000000000815260040161012a9190610b96565b60405180910390fd5b610142816101a460201b60201c565b5061015d3369d3c21bcecceda100000061026a60201b60201c565b80600660006101000a81548173ffffffffffffffffffffffffffffffffffffffff021916908373ffffffffffffffffffffffffffffffffffffffff16021790555050610e34565b6000600560009054906101000a900473ffffffffffffffffffffffffffffffffffffffff16905081600560006101000a81548173ffffffffffffffffffffffffffffffffffffffff021916908373ffffffffffffffffffffffffffffffffffffffff1602179055508173ffffffffffffffffffffffffffffffffffffffff168173ffffffffffffffffffffffffffffffffffffffff167f8be0079c531659141344cd1fd0a4f28419497f9722a3daafe3b4186f6b6457e060405160405180910390a35050565b600073ffffffffffffffffffffffffffffffffffffffff168273ffffffffffffffffffffffffffffffffffffffff16036102dc5760006040517fec442f050000000000000000000000000000000000000000000000000000000081526004016102d39190610b96565b60405180910390fd5b6102ee600083836102f260201b60201c565b5050565b6103038383836105b060201b60201c565b600073ffffffffffffffffffffffffffffffffffffffff168373ffffffffffffffffffffffffffffffffffffffff161415801561036d5750600073ffffffffffffffffffffffffffffffffffffffff168273ffffffffffffffffffffffffffffffffffffffff1614155b156105ab57600660009054906101000a900473ffffffffffffffffffffffffffffffffffffffff1673ffffffffffffffffffffffffffffffffffffffff1663b9209e33846040518263ffffffff1660e01b81526004016103cd9190610b96565b602060405180830381865afa1580156103ea573d6000803e3d6000fd5b505050506040513d601f19601f8201168201806040525081019061040e9190610be9565b61044d576040517f08c379a000000000000000000000000000000000000000000000000000000000815260040161044490610c73565b60405180910390fd5b600660009054906101000a900473ffffffffffffffffffffffffffffffffffffffff1673ffffffffffffffffffffffffffffffffffffffff1663b9209e33836040518263ffffffff1660e01b81526004016104a89190610b96565b602060405180830381865afa1580156104c5573d6000803e3d6000fd5b505050506040513d601f19601f820116820180604052508101906104e99190610be9565b610528576040517f08c379a000000000000000000000000000000000000000000000000000000000815260040161051f90610cdf565b60405180910390fd5b6007600081548092919061053b90610d2e565b91905055508173ffffffffffffffffffffffffffffffffffffffff168373ffffffffffffffffffffffffffffffffffffffff166007547f289d42a8414799962429869dada72a487f6df775dbddd68ef5df8e3026ef2cca84436040516105a2929190610d85565b60405180910390a45b505050565b600073ffffffffffffffffffffffffffffffffffffffff168373ffffffffffffffffffffffffffffffffffffffff16036106025780600260008282546105f69190610dae565b925050819055506106d5565b60008060008573ffffffffffffffffffffffffffffffffffffffff1673ffffffffffffffffffffffffffffffffffffffff1681526020019081526020016000205490508181101561068e578381836040517fe450d38c00000000000000000000000000000000000000000000000000000000815260040161068593929190610de2565b60405180910390fd5b8181036000808673ffffffffffffffffffffffffffffffffffffffff1673ffffffffffffffffffffffffffffffffffffffff16815260200190815260200160002081905550505b600073ffffffffffffffffffffffffffffffffffffffff168273ffffffffffffffffffffffffffffffffffffffff160361071e578060026000828254039250508190555061076b565b806000808473ffffffffffffffffffffffffffffffffffffffff1673ffffffffffffffffffffffffffffffffffffffff168152602001908152602001600020600082825401925050819055505b8173ffffffffffffffffffffffffffffffffffffffff168373ffffffffffffffffffffffffffffffffffffffff167fddf252ad1be2c89b69c2b068fc378daa952ba7f163c4a11628f55a4df523b3ef836040516107c89190610e19565b60405180910390a3505050565b600080fd5b600073ffffffffffffffffffffffffffffffffffffffff82169050919050565b6000610805826107da565b9050919050565b610815816107fa565b811461082057600080fd5b50565b6000815190506108328161080c565b92915050565b60006020828403121561084e5761084d6107d5565b5b600061085c84828501610823565b91505092915050565b600081519050919050565b7f4e487b7100000000000000000000000000000000000000000000000000000000600052604160045260246000fd5b7f4e487b7100000000000000000000000000000000000000000000000000000000600052602260045260246000fd5b600060028204905060018216806108e657607f821691505b6020821081036108f9576108f861089f565b5b50919050565b60008190508160005260206000209050919050565b60006020601f8301049050919050565b600082821b905092915050565b6000600883026109617fffffffffffffffffffffffffffffffffffffffffffffffffffffffffffffffff82610924565b61096b8683610924565b95508019841693508086168417925050509392505050565b6000819050919050565b6000819050919050565b60006109b26109ad6109a884610983565b61098d565b610983565b9050919050565b6000819050919050565b6109cc83610997565b6109e06109d8826109b9565b848454610931565b825550505050565b600090565b6109f56109e8565b610a008184846109c3565b505050565b5b81811015610a2457610a196000826109ed565b600181019050610a06565b5050565b601f821115610a6957610a3a816108ff565b610a4384610914565b81016020851015610a52578190505b610a66610a5e85610914565b830182610a05565b50505b505050565b600082821c905092915050565b6000610a8c60001984600802610a6e565b1980831691505092915050565b6000610aa58383610a7b565b9150826002028217905092915050565b610abe82610865565b67ffffffffffffffff811115610ad757610ad6610870565b5b610ae182546108ce565b610aec828285610a28565b600060209050601f831160018114610b1f5760008415610b0d578287015190505b610b178582610a99565b865550610b7f565b601f198416610b2d866108ff565b60005b82811015610b5557848901518255600182019150602085019450602081019050610b30565b86831015610b725784890151610b6e601f891682610a7b565b8355505b6001600288020188555050505b505050505050565b610b90816107fa565b82525050565b6000602082019050610bab6000830184610b87565b92915050565b60008115159050919050565b610bc681610bb1565b8114610bd157600080fd5b50565b600081519050610be381610bbd565b92915050565b600060208284031215610bff57610bfe6107d5565b5b6000610c0d84828501610bd4565b91505092915050565b600082825260208201905092915050565b7f4b59433a2073656e646572206e6f742076657269666965640000000000000000600082015250565b6000610c5d601883610c16565b9150610c6882610c27565b602082019050919050565b60006020820190508181036000830152610c8c81610c50565b9050919050565b7f4b59433a20726563697069656e74206e6f742076657269666965640000000000600082015250565b6000610cc9601b83610c16565b9150610cd482610c93565b602082019050919050565b60006020820190508181036000830152610cf881610cbc565b9050919050565b7f4e487b7100000000000000000000000000000000000000000000000000000000600052601160045260246000fd5b6000610d3982610983565b91507fffffffffffffffffffffffffffffffffffffffffffffffffffffffffffffffff8203610d6b57610d6a610cff565b5b600182019050919050565b610d7f81610983565b82525050565b6000604082019050610d9a6000830185610d76565b610da76020830184610d76565b9392505050565b6000610db982610983565b9150610dc483610983565b9250828201905080821115610ddc57610ddb610cff565b5b92915050565b6000606082019050610df76000830186610b87565b610e046020830185610d76565b610e116040830184610d76565b949350505050565b6000602082019050610e2e6000830184610d76565b92915050565b61196280610e436000396000f3fe608060405234801561001057600080fd5b506004361061010b5760003560e01c806370a08231116100a2578063a9059cbb11610071578063a9059cbb14610298578063b937e7cc146102c8578063d17f6417146102e6578063dd62ed3e14610302578063f2fde38b146103325761010b565b806370a0823114610222578063715018a6146102525780638da5cb5b1461025c57806395d89b411461027a5761010b565b80632ff2e9dc116100de5780632ff2e9dc146101ac578063313ce567146101ca57806340c10f19146101e857806353234fb4146102045761010b565b806306fdde0314610110578063095ea7b31461012e57806318160ddd1461015e57806323b872dd1461017c575b600080fd5b61011861034e565b6040516101259190611308565b60405180910390f35b610148600480360381019061014391906113c3565b6103e0565b604051610155919061141e565b60405180910390f35b610166610403565b6040516101739190611448565b60405180910390f35b61019660048036038101906101919190611463565b61040d565b6040516101a3919061141e565b60405180910390f35b6101b461043c565b6040516101c19190611448565b60405180910390f35b6101d261044a565b6040516101df91906114d2565b60405180910390f35b61020260048036038101906101fd91906113c3565b610453565b005b61020c610592565b6040516102199190611448565b60405180910390f35b61023c600480360381019061023791906114ed565b610598565b6040516102499190611448565b60405180910390f35b61025a6105e0565b005b6102646105f4565b6040516102719190611529565b60405180910390f35b61028261061e565b60405161028f9190611308565b60405180910390f35b6102b260048036038101906102ad91906113c3565b6106b0565b6040516102bf919061141e565b60405180910390f35b6102d06106d3565b6040516102dd91906115a3565b60405180910390f35b61030060048036038101906102fb91906114ed565b6106f9565b005b61031c600480360381019061031791906115be565b610745565b6040516103299190611448565b60405180910390f35b61034c600480360381019061034791906114ed565b6107cc565b005b60606003805461035d9061162d565b80601f01602080910402602001604051908101604052809291908181526020018280546103899061162d565b80156103d65780601f106103ab576101008083540402835291602001916103d6565b820191906000526020600020905b8154815290600101906020018083116103b957829003601f168201915b5050505050905090565b6000806103eb610852565b90506103f881858561085a565b600191505092915050565b6000600254905090565b600080610418610852565b905061042585828561086c565b610430858585610901565b60019150509392505050565b69d3c21bcecceda100000081565b60006012905090565b61045b6109f5565b600660009054906101000a900473ffffffffffffffffffffffffffffffffffffffff1673ffffffffffffffffffffffffffffffffffffffff1663b9209e33836040518263ffffffff1660e01b81526004016104b69190611529565b602060405180830381865afa1580156104d3573d6000803e3d6000fd5b505050506040513d601f19601f820116820180604052508101906104f7919061168a565b610536576040517f08c379a000000000000000000000000000000000000000000000000000000000815260040161052d90611729565b60405180910390fd5b6105408282610a7c565b8173ffffffffffffffffffffffffffffffffffffffff167f3f2c9d57c068687834f0de942a9babb9e5acab57d516d3480a3c16ee165a4273826040516105869190611448565b60405180910390a25050565b60075481565b60008060008373ffffffffffffffffffffffffffffffffffffffff1673ffffffffffffffffffffffffffffffffffffffff168152602001908152602001600020549050919050565b6105e86109f5565b6105f26000610afe565b565b6000600560009054906101000a900473ffffffffffffffffffffffffffffffffffffffff16905090565b60606004805461062d9061162d565b80601f01602080910402602001604051908101604052809291908181526020018280546106599061162d565b80156106a65780601f1061067b576101008083540402835291602001916106a6565b820191906000526020600020905b81548152906001019060200180831161068957829003601f168201915b5050505050905090565b6000806106bb610852565b90506106c8818585610901565b600191505092915050565b600660009054906101000a900473ffffffffffffffffffffffffffffffffffffffff1681565b6107016109f5565b80600660006101000a81548173ffffffffffffffffffffffffffffffffffffffff021916908373ffffffffffffffffffffffffffffffffffffffff16021790555050565b6000600160008473ffffffffffffffffffffffffffffffffffffffff1673ffffffffffffffffffffffffffffffffffffffff16815260200190815260200160002060008373ffffffffffffffffffffffffffffffffffffffff1673ffffffffffffffffffffffffffffffffffffffff16815260200190815260200160002054905092915050565b6107d46109f5565b600073ffffffffffffffffffffffffffffffffffffffff168173ffffffffffffffffffffffffffffffffffffffff16036108465760006040517f1e4fbdf700000000000000000000000000000000000000000000000000000000815260040161083d9190611529565b60405180910390fd5b61084f81610afe565b50565b600033905090565b6108678383836001610bc4565b505050565b60006108788484610745565b90507fffffffffffffffffffffffffffffffffffffffffffffffffffffffffffffffff8110156108fb57818110156108eb578281836040517ffb8f41b20000000000000000000000000000000000000000000000000000000081526004016108e293929190611749565b60405180910390fd5b6108fa84848484036000610bc4565b5b50505050565b600073ffffffffffffffffffffffffffffffffffffffff168373ffffffffffffffffffffffffffffffffffffffff16036109735760006040517f96c6fd1e00000000000000000000000000000000000000000000000000000000815260040161096a9190611529565b60405180910390fd5b600073ffffffffffffffffffffffffffffffffffffffff168273ffffffffffffffffffffffffffffffffffffffff16036109e55760006040517fec442f050000000000000000000000000000000000000000000000000000000081526004016109dc9190611529565b60405180910390fd5b6109f0838383610d9b565b505050565b6109fd610852565b73ffffffffffffffffffffffffffffffffffffffff16610a1b6105f4565b73ffffffffffffffffffffffffffffffffffffffff1614610a7a57610a3e610852565b6040517f118cdaa7000000000000000000000000000000000000000000000000000000008152600401610a719190611529565b60405180910390fd5b565b600073ffffffffffffffffffffffffffffffffffffffff168273ffffffffffffffffffffffffffffffffffffffff1603610aee5760006040517fec442f05000000000000000000000000000000000000000000000000000000008152600401610ae59190611529565b60405180910390fd5b610afa60008383610d9b565b5050565b6000600560009054906101000a900473ffffffffffffffffffffffffffffffffffffffff16905081600560006101000a81548173ffffffffffffffffffffffffffffffffffffffff021916908373ffffffffffffffffffffffffffffffffffffffff1602179055508173ffffffffffffffffffffffffffffffffffffffff168173ffffffffffffffffffffffffffffffffffffffff167f8be0079c531659141344cd1fd0a4f28419497f9722a3daafe3b4186f6b6457e060405160405180910390a35050565b600073ffffffffffffffffffffffffffffffffffffffff168473ffffffffffffffffffffffffffffffffffffffff1603610c365760006040517fe602df05000000000000000000000000000000000000000000000000000000008152600401610c2d9190611529565b60405180910390fd5b600073ffffffffffffffffffffffffffffffffffffffff168373ffffffffffffffffffffffffffffffffffffffff1603610ca85760006040517f94280d62000000000000000000000000000000000000000000000000000000008152600401610c9f9190611529565b60405180910390fd5b81600160008673ffffffffffffffffffffffffffffffffffffffff1673ffffffffffffffffffffffffffffffffffffffff16815260200190815260200160002060008573ffffffffffffffffffffffffffffffffffffffff1673ffffffffffffffffffffffffffffffffffffffff168152602001908152602001600020819055508015610d95578273ffffffffffffffffffffffffffffffffffffffff168473ffffffffffffffffffffffffffffffffffffffff167f8c5be1e5ebec7d5bd14f71427d1e84f3dd0314c0f7b2291e5b200ac8c7c3b92584604051610d8c9190611448565b60405180910390a35b50505050565b610da6838383611053565b600073ffffffffffffffffffffffffffffffffffffffff168373ffffffffffffffffffffffffffffffffffffffff1614158015610e105750600073ffffffffffffffffffffffffffffffffffffffff168273ffffffffffffffffffffffffffffffffffffffff1614155b1561104e57600660009054906101000a900473ffffffffffffffffffffffffffffffffffffffff1673ffffffffffffffffffffffffffffffffffffffff1663b9209e33846040518263ffffffff1660e01b8152600401610e709190611529565b602060405180830381865afa158015610e8d573d6000803e3d6000fd5b505050506040513d601f19601f82011682018060405250810190610eb1919061168a565b610ef0576040517f08c379a0000000000000000000000000000000000000000000000000000000008152600401610ee7906117cc565b60405180910390fd5b600660009054906101000a900473ffffffffffffffffffffffffffffffffffffffff1673ffffffffffffffffffffffffffffffffffffffff1663b9209e33836040518263ffffffff1660e01b8152600401610f4b9190611529565b602060405180830381865afa158015610f68573d6000803e3d6000fd5b505050506040513d601f19601f82011682018060405250810190610f8c919061168a565b610fcb576040517f08c379a0000000000000000000000000000000000000000000000000000000008152600401610fc290611838565b60405180910390fd5b60076000815480929190610fde90611887565b91905055508173ffffffffffffffffffffffffffffffffffffffff168373ffffffffffffffffffffffffffffffffffffffff166007547f289d42a8414799962429869dada72a487f6df775dbddd68ef5df8e3026ef2cca84436040516110459291906118cf565b60405180910390a45b505050565b600073ffffffffffffffffffffffffffffffffffffffff168373ffffffffffffffffffffffffffffffffffffffff16036110a557806002600082825461109991906118f8565b92505081905550611178565b60008060008573ffffffffffffffffffffffffffffffffffffffff1673ffffffffffffffffffffffffffffffffffffffff16815260200190815260200160002054905081811015611131578381836040517fe450d38c00000000000000000000000000000000000000000000000000000000815260040161112893929190611749565b60405180910390fd5b8181036000808673ffffffffffffffffffffffffffffffffffffffff1673ffffffffffffffffffffffffffffffffffffffff16815260200190815260200160002081905550505b600073ffffffffffffffffffffffffffffffffffffffff168273ffffffffffffffffffffffffffffffffffffffff16036111c1578060026000828254039250508190555061120e565b806000808473ffffffffffffffffffffffffffffffffffffffff1673ffffffffffffffffffffffffffffffffffffffff168152602001908152602001600020600082825401925050819055505b8173ffffffffffffffffffffffffffffffffffffffff168373ffffffffffffffffffffffffffffffffffffffff167fddf252ad1be2c89b69c2b068fc378daa952ba7f163c4a11628f55a4df523b3ef8360405161126b9190611448565b60405180910390a3505050565b600081519050919050565b600082825260208201905092915050565b60005b838110156112b2578082015181840152602081019050611297565b60008484015250505050565b6000601f19601f8301169050919050565b60006112da82611278565b6112e48185611283565b93506112f4818560208601611294565b6112fd816112be565b840191505092915050565b6000602082019050818103600083015261132281846112cf565b905092915050565b600080fd5b600073ffffffffffffffffffffffffffffffffffffffff82169050919050565b600061135a8261132f565b9050919050565b61136a8161134f565b811461137557600080fd5b50565b60008135905061138781611361565b92915050565b6000819050919050565b6113a08161138d565b81146113ab57600080fd5b50565b6000813590506113bd81611397565b92915050565b600080604083850312156113da576113d961132a565b5b60006113e885828601611378565b92505060206113f9858286016113ae565b9150509250929050565b60008115159050919050565b61141881611403565b82525050565b6000602082019050611433600083018461140f565b92915050565b6114428161138d565b82525050565b600060208201905061145d6000830184611439565b92915050565b60008060006060848603121561147c5761147b61132a565b5b600061148a86828701611378565b935050602061149b86828701611378565b92505060406114ac868287016113ae565b9150509250925092565b600060ff82169050919050565b6114cc816114b6565b82525050565b60006020820190506114e760008301846114c3565b92915050565b6000602082840312156115035761150261132a565b5b600061151184828501611378565b91505092915050565b6115238161134f565b82525050565b600060208201905061153e600083018461151a565b92915050565b6000819050919050565b600061156961156461155f8461132f565b611544565b61132f565b9050919050565b600061157b8261154e565b9050919050565b600061158d82611570565b9050919050565b61159d81611582565b82525050565b60006020820190506115b86000830184611594565b92915050565b600080604083850312156115d5576115d461132a565b5b60006115e385828601611378565b92505060206115f485828601611378565b9150509250929050565b7f4e487b7100000000000000000000000000000000000000000000000000000000600052602260045260246000fd5b6000600282049050600182168061164557607f821691505b602082108103611658576116576115fe565b5b50919050565b61166781611403565b811461167257600080fd5b50565b6000815190506116848161165e565b92915050565b6000602082840312156116a05761169f61132a565b5b60006116ae84828501611675565b91505092915050565b7f6f6e2d636861696e65204b59433a20546869732077616c6c6574206973206e6f60008201527f7420766572696669656400000000000000000000000000000000000000000000602082015250565b6000611713602a83611283565b915061171e826116b7565b604082019050919050565b6000602082019050818103600083015261174281611706565b9050919050565b600060608201905061175e600083018661151a565b61176b6020830185611439565b6117786040830184611439565b949350505050565b7f4b59433a2073656e646572206e6f742076657269666965640000000000000000600082015250565b60006117b6601883611283565b91506117c182611780565b602082019050919050565b600060208201905081810360008301526117e5816117a9565b9050919050565b7f4b59433a20726563697069656e74206e6f742076657269666965640000000000600082015250565b6000611822601b83611283565b915061182d826117ec565b602082019050919050565b6000602082019050818103600083015261185181611815565b9050919050565b7f4e487b7100000000000000000000000000000000000000000000000000000000600052601160045260246000fd5b60006118928261138d565b91507fffffffffffffffffffffffffffffffffffffffffffffffffffffffffffffffff82036118c4576118c3611858565b5b600182019050919050565b60006040820190506118e46000830185611439565b6118f16020830184611439565b9392505050565b60006119038261138d565b915061190e8361138d565b925082820190508082111561192657611925611858565b5b9291505056fea2646970667358221220c2092ee7d42cd7aea39408da6d3346087fe90a0d8f8644020a9d55b955af3a2264736f6c634300081c0033",
  "linkReferences": {},
  "deployedLinkReferences": {}
}