{
  "_format": "hh-sol-artifact-1",
  "contractName": "KYCVerifier",
  "sourceName": "contracts/KYCVerifier.sol",
  "abi": [
    {
      "inputs": [
        {
          "internalType": "address",
          "name": "_issuer",
          "type": "address"
        }
      ],
      "stateMutability": "nonpayable",
      "type": "constructor"
    },
    {
      "inputs": [],
      "name": "ECDSAInvalidSignature",
      "type": "error"
    },
    {
      "inputs": [
        {
          "internalType": "uint256",
          "name": "length",
          "type": "uint256"
        }
      ],
      "name": "ECDSAInvalidSignatureLength",
      "type": "error"
    },
    {
      "inputs": [
        {
          "internalType": "bytes32",
          "name": "s",
          "type": "bytes32"
        }
      ],
      "name": "ECDSAInvalidSignatureS",
      "type": "error"
    },
    {
      "inputs": [],
      "name": "InvalidShortString",
      "type": "error"
    },
    {
      "inputs": [
        {
          "internalType": "string",
          "name": "str",
          "type": "string"
        }
      ],
      "name": "StringTooLong",
      "type": "error"
    },
    {
      "anonymous": false,
      "inputs": [],
      "name": "EIP712DomainChanged",
      "type": "event"
    },
    {
      "inputs": [],
      "name": "KYC_TYPEHASH",
      "outputs": [
        {
          "internalType": "bytes32",
          "name": "",
          "type": "bytes32"
        }
      ],
      "stateMutability": "view",
      "type": "function"
    },
    {
      "inputs": [],
      "name": "eip712Domain",
      "outputs": [
        {
          "internalType": "bytes1",
          "name": "fields",
          "type": "bytes1"
        },
        {
          "internalType": "string",
          "name": "name",
          "type": "string"
        },
        {
          "internalType": "string",
          "name": "version",
          "type": "string"
        },
        {
          "internalType": "uint256",
          "name": "chainId",
          "type": "uint256"
        },
        {
          "internalType": "address",
          "name": "verifyingContract",
          "type": "address"
        },
        {
          "internalType": "bytes32",
          "name": "salt",
          "type": "bytes32"
        },
        {
          "internalType": "uint256[]",
          "name": "extensions",
          "type": "uint256[]"
        }
      ],
      "stateMutability": "view",
      "type": "function"
    },
    {
      "inputs": [
        {
          "internalType": "address",
          "name": "",
          "type": "address"
        }
      ],
      "name": "isVerified",
      "outputs": [
        {
          "internalType": "bool",
          "name": "",
          "type": "bool"
        }
      ],
      "stateMutability": "view",
      "type": "function"
    },
    {
      "inputs": [],
      "name": "issuer",
      "outputs": [
        {
          "internalType": "address",
          "name": "",
          "type": "address"
        }
      ],
      "stateMutability": "view",
      "type": "function"
    },
    {
      "inputs": [
        {
          "internalType": "address",
          "name": "user",
          "type": "address"
        },
        {
          "internalType": "uint256",
          "name": "issuedAt",
          "type": "uint256"
        },
        {
          "internalType": "bytes",
          "name": "sig",
          "type": "bytes"
        }
      ],
      "name": "verifyKYC",
      "outputs": [],
      "stateMutability": "nonpayable",
      "type": "function"
    }
  ],
  "bytecode": "0x61016060405234801561001157600080fd5b5060405161198e38038061198e83398181016040528101906100339190610310565b6040518060400160405280600981526020017f4762657365204b594300000000000000000000000000000000000000000000008152506040518060400160405280600181526020017f31000000000000000000000000000000000000000000000000000000000000008152506100b360008361019060201b90919060201c565b61012081815250506100cf60018261019060201b90919060201c565b6101408181525050818051906020012060e08181525050808051906020012061010081815250504660a0818152505061010c6101e060201b60201c565b608081815250503073ffffffffffffffffffffffffffffffffffffffff1660c08173ffffffffffffffffffffffffffffffffffffffff1681525050505080600260006101000a81548173ffffffffffffffffffffffffffffffffffffffff021916908373ffffffffffffffffffffffffffffffffffffffff16021790555050610827565b60006020835110156101b2576101ab8361023b60201b60201c565b90506101da565b826101c2836102a360201b60201c565b60000190816101d1919061058d565b5060ff60001b90505b92915050565b60007f8b73c3c69bb8fe3d512ecc4cf759cc79239f7b179b0ffacaa9a75d522b39400f60e051610100514630604051602001610220959493929190610696565b60405160208183030381529060405280519060200120905090565b600080829050601f8151111561028857826040517f305a27a900000000000000000000000000000000000000000000000000000000815260040161027f919061076e565b60405180910390fd5b805181610294906107c0565b60001c1760001b915050919050565b6000819050919050565b600080fd5b600073ffffffffffffffffffffffffffffffffffffffff82169050919050565b60006102dd826102b2565b9050919050565b6102ed816102d2565b81146102f857600080fd5b50565b60008151905061030a816102e4565b92915050565b600060208284031215610326576103256102ad565b5b6000610334848285016102fb565b91505092915050565b600081519050919050565b7f4e487b7100000000000000000000000000000000000000000000000000000000600052604160045260246000fd5b7f4e487b7100000000000000000000000000000000000000000000000000000000600052602260045260246000fd5b600060028204905060018216806103be57607f821691505b6020821081036103d1576103d0610377565b5b50919050565b60008190508160005260206000209050919050565b60006020601f8301049050919050565b600082821b905092915050565b6000600883026104397fffffffffffffffffffffffffffffffffffffffffffffffffffffffffffffffff826103fc565b61044386836103fc565b95508019841693508086168417925050509392505050565b6000819050919050565b6000819050919050565b600061048a6104856104808461045b565b610465565b61045b565b9050919050565b6000819050919050565b6104a48361046f565b6104b86104b082610491565b848454610409565b825550505050565b600090565b6104cd6104c0565b6104d881848461049b565b505050565b5b818110156104fc576104f16000826104c5565b6001810190506104de565b5050565b601f82111561054157610512816103d7565b61051b846103ec565b8101602085101561052a578190505b61053e610536856103ec565b8301826104dd565b50505b505050565b600082821c905092915050565b600061056460001984600802610546565b1980831691505092915050565b600061057d8383610553565b9150826002028217905092915050565b6105968261033d565b67ffffffffffffffff8111156105af576105ae610348565b5b6105b982546103a6565b6105c4828285610500565b600060209050601f8311600181146105f757600084156105e5578287015190505b6105ef8582610571565b865550610657565b601f198416610605866103d7565b60005b8281101561062d57848901518255600182019150602085019450602081019050610608565b8683101561064a5784890151610646601f891682610553565b8355505b6001600288020188555050505b505050505050565b6000819050919050565b6106728161065f565b82525050565b6106818161045b565b82525050565b610690816102d2565b82525050565b600060a0820190506106ab6000830188610669565b6106b86020830187610669565b6106c56040830186610669565b6106d26060830185610678565b6106df6080830184610687565b9695505050505050565b600082825260208201905092915050565b60005b838110156107185780820151818401526020810190506106fd565b60008484015250505050565b6000601f19601f8301169050919050565b60006107408261033d565b61074a81856106e9565b935061075a8185602086016106fa565b61076381610724565b840191505092915050565b600060208201905081810360008301526107888184610735565b905092915050565b600081519050919050565b6000819050602082019050919050565b60006107b7825161065f565b80915050919050565b60006107cb82610790565b826107d58461079b565b90506107e0816107ab565b925060208210156108205761081b7fffffffffffffffffffffffffffffffffffffffffffffffffffffffffffffffff836020036008026103fc565b831692505b5050919050565b60805160a05160c05160e05161010051610120516101405161110d61088160003960006103ff015260006103c401526000610899015260006108780152600061052b01526000610581015260006105aa015261110d6000f3fe608060405234801561001057600080fd5b50600436106100575760003560e01c80631d1438481461005c57806384b0196e1461007a578063b0e0307a1461009e578063b9209e33146100ba578063e7611728146100ea575b600080fd5b610064610108565b6040516100719190610a6e565b60405180910390f35b61008261012e565b6040516100959796959493929190610c44565b60405180910390f35b6100b860048036038101906100b39190610d8f565b6101d8565b005b6100d460048036038101906100cf9190610e03565b610377565b6040516100e19190610e4b565b60405180910390f35b6100f2610397565b6040516100ff9190610e66565b60405180910390f35b600260009054906101000a900473ffffffffffffffffffffffffffffffffffffffff1681565b6000606080600080600060606101426103bb565b61014a6103f6565b46306000801b600067ffffffffffffffff81111561016b5761016a610e81565b5b6040519080825280602002602001820160405280156101995781602001602082028036833780820191505090505b507f0f00000000000000000000000000000000000000000000000000000000000000959493929190965096509650965096509650965090919293949596565b60007fca0e957e32927057be135c2a16fab05e2ced2b28acac0d4fb34bcbb0ddc71c86858560405160200161020f93929190610eb0565b604051602081830303815290604052805190602001209050600061023282610431565b905060006102848286868080601f016020809104026020016040519081016040528093929190818152602001838380828437600081840152601f19601f8201169050808301925050505050505061044b565b9050600260009054906101000a900473ffffffffffffffffffffffffffffffffffffffff1673ffffffffffffffffffffffffffffffffffffffff168173ffffffffffffffffffffffffffffffffffffffff1614610316576040517f08c379a000000000000000000000000000000000000000000000000000000000815260040161030d90610f59565b60405180910390fd5b6001600360008973ffffffffffffffffffffffffffffffffffffffff1673ffffffffffffffffffffffffffffffffffffffff16815260200190815260200160002060006101000a81548160ff02191690831515021790555050505050505050565b60036020528060005260406000206000915054906101000a900460ff1681565b7fca0e957e32927057be135c2a16fab05e2ced2b28acac0d4fb34bcbb0ddc71c8681565b60606103f160007f000000000000000000000000000000000000000000000000000000000000000061047790919063ffffffff16565b905090565b606061042c60017f000000000000000000000000000000000000000000000000000000000000000061047790919063ffffffff16565b905090565b600061044461043e610527565b836105de565b9050919050565b60008060008061045b868661061f565b92509250925061046b828261067b565b82935050505092915050565b606060ff60001b83146104945761048d836107df565b9050610521565b8180546104a090610fa8565b80601f01602080910402602001604051908101604052809291908181526020018280546104cc90610fa8565b80156105195780601f106104ee57610100808354040283529160200191610519565b820191906000526020600020905b8154815290600101906020018083116104fc57829003601f168201915b505050505090505b92915050565b60007f000000000000000000000000000000000000000000000000000000000000000073ffffffffffffffffffffffffffffffffffffffff163073ffffffffffffffffffffffffffffffffffffffff161480156105a357507f000000000000000000000000000000000000000000000000000000000000000046145b156105d0577f000000000000000000000000000000000000000000000000000000000000000090506105db565b6105d8610853565b90505b90565b60006040517f190100000000000000000000000000000000000000000000000000000000000081528360028201528260228201526042812091505092915050565b600080600060418451036106645760008060006020870151925060408701519150606087015160001a9050610656888285856108e9565b955095509550505050610674565b60006002855160001b9250925092505b9250925092565b6000600381111561068f5761068e610fd9565b5b8260038111156106a2576106a1610fd9565b5b03156107db57600160038111156106bc576106bb610fd9565b5b8260038111156106cf576106ce610fd9565b5b03610706576040517ff645eedf00000000000000000000000000000000000000000000000000000000815260040160405180910390fd5b6002600381111561071a57610719610fd9565b5b82600381111561072d5761072c610fd9565b5b03610772578060001c6040517ffce698f70000000000000000000000000000000000000000000000000000000081526004016107699190611008565b60405180910390fd5b60038081111561078557610784610fd9565b5b82600381111561079857610797610fd9565b5b036107da57806040517fd78bce0c0000000000000000000000000000000000000000000000000000000081526004016107d19190610e66565b60405180910390fd5b5b5050565b606060006107ec836109dd565b90506000602067ffffffffffffffff81111561080b5761080a610e81565b5b6040519080825280601f01601f19166020018201604052801561083d5781602001600182028036833780820191505090505b5090508181528360208201528092505050919050565b60007f8b73c3c69bb8fe3d512ecc4cf759cc79239f7b179b0ffacaa9a75d522b39400f7f00000000000000000000000000000000000000000000000000000000000000007f000000000000000000000000000000000000000000000000000000000000000046306040516020016108ce959493929190611023565b60405160208183030381529060405280519060200120905090565b60008060007f7fffffffffffffffffffffffffffffff5d576e7357a4501ddfe92f46681b20a08460001c11156109295760006003859250925092506109d3565b60006001888888886040516000815260200160405260405161094e9493929190611092565b6020604051602081039080840390855afa158015610970573d6000803e3d6000fd5b505050602060405103519050600073ffffffffffffffffffffffffffffffffffffffff168173ffffffffffffffffffffffffffffffffffffffff16036109c457600060016000801b935093509350506109d3565b8060008060001b935093509350505b9450945094915050565b60008060ff8360001c169050601f811115610a24576040517fb3512b0c00000000000000000000000000000000000000000000000000000000815260040160405180910390fd5b80915050919050565b600073ffffffffffffffffffffffffffffffffffffffff82169050919050565b6000610a5882610a2d565b9050919050565b610a6881610a4d565b82525050565b6000602082019050610a836000830184610a5f565b92915050565b60007fff0000000000000000000000000000000000000000000000000000000000000082169050919050565b610abe81610a89565b82525050565b600081519050919050565b600082825260208201905092915050565b60005b83811015610afe578082015181840152602081019050610ae3565b60008484015250505050565b6000601f19601f8301169050919050565b6000610b2682610ac4565b610b308185610acf565b9350610b40818560208601610ae0565b610b4981610b0a565b840191505092915050565b6000819050919050565b610b6781610b54565b82525050565b6000819050919050565b610b8081610b6d565b82525050565b600081519050919050565b600082825260208201905092915050565b6000819050602082019050919050565b610bbb81610b54565b82525050565b6000610bcd8383610bb2565b60208301905092915050565b6000602082019050919050565b6000610bf182610b86565b610bfb8185610b91565b9350610c0683610ba2565b8060005b83811015610c37578151610c1e8882610bc1565b9750610c2983610bd9565b925050600181019050610c0a565b5085935050505092915050565b600060e082019050610c59600083018a610ab5565b8181036020830152610c6b8189610b1b565b90508181036040830152610c7f8188610b1b565b9050610c8e6060830187610b5e565b610c9b6080830186610a5f565b610ca860a0830185610b77565b81810360c0830152610cba8184610be6565b905098975050505050505050565b600080fd5b600080fd5b610cdb81610a4d565b8114610ce657600080fd5b50565b600081359050610cf881610cd2565b92915050565b610d0781610b54565b8114610d1257600080fd5b50565b600081359050610d2481610cfe565b92915050565b600080fd5b600080fd5b600080fd5b60008083601f840112610d4f57610d4e610d2a565b5b8235905067ffffffffffffffff811115610d6c57610d6b610d2f565b5b602083019150836001820283011115610d8857610d87610d34565b5b9250929050565b60008060008060608587031215610da957610da8610cc8565b5b6000610db787828801610ce9565b9450506020610dc887828801610d15565b935050604085013567ffffffffffffffff811115610de957610de8610ccd565b5b610df587828801610d39565b925092505092959194509250565b600060208284031215610e1957610e18610cc8565b5b6000610e2784828501610ce9565b91505092915050565b60008115159050919050565b610e4581610e30565b82525050565b6000602082019050610e606000830184610e3c565b92915050565b6000602082019050610e7b6000830184610b77565b92915050565b7f4e487b7100000000000000000000000000000000000000000000000000000000600052604160045260246000fd5b6000606082019050610ec56000830186610b77565b610ed26020830185610a5f565b610edf6040830184610b5e565b949350505050565b7f496e76616c6964206f7220756e617574686f72697a6564204b5943207369676e60008201527f6174757265000000000000000000000000000000000000000000000000000000602082015250565b6000610f43602583610acf565b9150610f4e82610ee7565b604082019050919050565b60006020820190508181036000830152610f7281610f36565b9050919050565b7f4e487b7100000000000000000000000000000000000000000000000000000000600052602260045260246000fd5b60006002820490506001821680610fc057607f821691505b602082108103610fd357610fd2610f79565b5b50919050565b7f4e487b7100000000000000000000000000000000000000000000000000000000600052602160045260246000fd5b600060208201905061101d6000830184610b5e565b92915050565b600060a0820190506110386000830188610b77565b6110456020830187610b77565b6110526040830186610b77565b61105f6060830185610b5e565b61106c6080830184610a5f565b9695505050505050565b600060ff82169050919050565b61108c81611076565b82525050565b60006080820190506110a76000830187610b77565b6110b46020830186611083565b6110c16040830185610b77565b6110ce6060830184610b77565b9594505050505056fea26469706673582212207f76705df13137fe2c89b43f090874295f2c5170da144bc5d63835d84ec29d7664736f6c634300081c0033",
  "linkReferences": {},
  "deployedLinkReferences": {}
}